:020000040800F2
:10000000D8090020890100084F2300086D2000084E
:100010004D230008E7030008B92A0008000000008B
:100020000000000000000000000000000F24000895
:1000300093050008000000000D24000811240008AA
:10004000A3010008A3010008A3010008A301000800
:10005000A3010008A3010008A3010008A3010008F0
:10006000A3010008A3010008A3010008A3010008E0
:100070005D050008A3010008A3010008A301000812
:10008000A3010008A3010008A3010008A3010008C0
:10009000A3010008A3010008A3010008A3010008B0
:1000A000A3010008A3010008A3010008A3010008A0
:1000B000752400082925000835250008A30100083B
:1000C000A3010008A3010008A3010008A301000880
:1000D000A3010008A3010008A12A0008AD2A000816
:1000E000A3010008A3010008A301000800F002F822
:1000F00000F03AF80AA090E8000C82448344AAF188
:100100000107DA4501D100F02FF8AFF2090EBAE885
:100110000F0013F0010F18BFFB1A43F0010318473B
:10012000C8370000E8370000103A24BF78C878C10B
:10013000FAD8520724BF30C830C144BF04680C60ED
:10014000704700000023002400250026103A28BF35
:1001500078C1FBD8520728BF30C148BF0B60704739
:100160001FB51FBD10B510BD00F003F91146FFF714
:10017000F7FF02F00BFD00F021F903B4FFF7F2FFE7
:1001800003BC00F029F900000948804709480047EE
:10019000FEE7FEE7FEE7FEE7FEE7FEE7FEE7FEE737
:1001A000FEE7FEE704480549054A064B7047000094
:1001B00073240008ED000008D8030020D8090020AF
:1001C000D8050020D805002030B505460B462A4644
:1001D00013F8014B12F8010B08B1A042F8D01CB182
:1001E000002802D06D1CF1E7284630BD032A40F2FA
:1001F000308010F0030C00F0158011F8013BBCF1C9
:10020000020F624498BF11F801CB00F8013B38BFE0
:1002100011F8013BA2F1040298BF00F801CB38BFEE
:1002200000F8013B11F0030300F07180083AC0F0C0
:10023000088051F8043B083A51F804CBA0E80810B4
:10024000F5E7121D5CBF51F8043B40F8043BAFF3E7
:100250000080D20724BF11F8013B11F801CB48BF41
:1002600011F8012B24BF00F8013B00F801CB48BF77
:1002700000F8012B70474FF000020429C0F01280F3
:1002800010F0030C00F01B80CCF1040CBCF1020F49
:1002900018BF00F8012BA8BF20F8022BA1EB0C011E
:1002A00000F00DB85FEAC17C24BF00F8012B00F814
:1002B000012B48BF00F8012B70474FF0000200B53A
:1002C000134694469646203922BFA0E80C50A0E879
:1002D0000C50B1F12001BFF4F7AF090728BFA0E827
:1002E0000C5048BF0CC05DF804EB890028BF40F8F3
:1002F000042B08BF704748BF20F8022B11F0804F35
:1003000018BF00F8012B704770477047704710B551
:10031000203AC0F00B80B1E81850203AA0E81850FD
:10032000B1E81850A0E81850BFF4F5AF5FEA027CBE
:1003300024BFB1E81850A0E8185044BF18C918C02D
:10034000BDE810405FEA827C24BF51F8043B40F8CE
:10035000043B08BF7047D20728BF31F8023B48BFB3
:1003600011F8012B28BF20F8023B48BF00F8012BF1
:100370007047754600F02CF8AE46050069465346B6
:1003800020F00700854618B020B5FFF70BFFBDE849
:1003900020404FF000064FF000074FF000084FF0EC
:1003A000000B21F00701AC46ACE8C009ACE8C0097D
:1003B000ACE8C009ACE8C0098D46704710B50446EA
:1003C000AFF300802046BDE81040FFF7D6BE000026
:1003D000004870477803002001491820ABBEFEE7B3
:1003E000260002007047FEE710B500F057F8BDE8A0
:1003F0001040322000F09ABA10B5282002F004FA1A
:100400008021044800F094FB08B1002010BD0120B9
:1004100010BD0000000C01401FB58022084B0121D7
:1004200020B100200092CDE9010104E00320CDE9D4
:100430000021CDE902106946184600F089FA1FBD77
:10044000000C014010B50C4C8021204600F070FBE0
:100450000028F9D0282002F0D7F98021204600F0AA
:1004600067FB002806D08021204600F061FB0028B1
:10047000F9D1012010BD0000000C014070B500242E
:1004800025466006040EFFF7DDFF08B144F00104C5
:100490006D1CEDB2082DF4D3204670BD70B500F090
:1004A00049F8FFF7A9FFE0B3204C8021204600F077
:1004B0003FFB0028F9D08021204600F039FB0028BE
:1004C000F9D11B4C002500BFFFF7D8FF60556D1C0C
:1004D000EDB2052DF8D321786078A578E27808444C
:1004E0002A441044227990421CD10A26B1FBF6F32B
:1004F0005A4202EB820201EB4201B5FBF6F20C48D4
:100500005442401D30330670303104EB8404437094
:10051000303205EB44048170C27030340471012024
:1005200070BD01E00020FBE70220F9E7000C01406C
:100530000000002010B50020FFF76EFF0022802190
:10054000054800F0FAFA142000F0F0F9BDE8104078
:100550000120FFF761BF0000000C0140014800F0DE
:10056000D5B800002003002030B590F84050012499
:10057000AC40C56B6C60046863604368102B036813
:1005800003D099600068C26030BD9A600068C160A5
:1005900030BD704772B6FEE770B51D4C2078B8B11B
:1005A000032814D11B4803C8081AA06002F02EFDCE
:1005B000194A1A4B02F03EFD4FF0FF3203F041F9A9
:1005C00002F0EAFC6060164900202070086070BDEF
:1005D000144D01222021284600F0AFFA1E2002F01F
:1005E0007DFA00222021284600F0A7FA2078401C3E
:1005F00020700D4801680A6A22F00A020A62006847
:10060000016A0162BDE870400021074801F04EB860
:10061000140000204C0100209CC420B07268A13F4F
:1006200024040040000C0140E801002010B590F8BF
:1006300021100022022905D00421816380F82020A6
:10064000012010BD01680B6823F00E030B600168E8
:100650000B6823F001030B6090F84030C46B01215C
:1006600001FA03F3636080F8211080F8202010461F
:1006700010BD000010B590F821100024022903D00D
:100680000421816301243DE001680A6822F00E0222
:100690000A6001680A6822F001020A601A4A0168C9
:1006A000914201D1012121E0174A1432914201D136
:1006B00010211BE0144A2832914201D1891515E01E
:1006C000114A3C32914201D189140FE00E4A503256
:1006D000914202D14FF4803108E00B4A64329142DA
:1006E00002D14FF4801101E04FF08071064A083AC0
:1006F0005160012180F82110002180F82010416B09
:1007000001B18847204610BD080002402DE9F05F86
:10071000C16B0C6801680B68D0F840C0042202FA73
:100720000CF2494DDFF824A1494E4A4FDFF828B1B9
:10073000DFF828E122422CD05A072AD50A6892060F
:1007400003D40A6822F004020A600168A94201D1B8
:10075000042219E0514501D1402215E0B14202D1F5
:100760004FF4806210E0B94202D14FF480420BE0B6
:10077000594502D14FF4802206E0714502D14FF471
:10078000800201E04FF080622F4908394A60C16A57
:100790003BE04FF0020808FA0CF818EA040F4FF09B
:1007A00000094FF0010235D05FEA837832D50B683B
:1007B0009B0605D40B6823F00A030B6080F8212008
:1007C0000168A94201D1022219E0514501D120223C
:1007D00015E0B14202D14FF4007210E0B94202D1EB
:1007E0004FF400520BE0594502D14FF4003206E0BD
:1007F000714502D14FF4001201E04FF0007212492E
:1008000008394A6080F82090816A00291AD0BDE832
:10081000F05F0847082505FA0CF5254212D01B07A2
:1008200010D50B6823F00E030B6090F84010C36BDB
:1008300002FA01F15960826380F8212080F820904B
:10084000016BE2E7BDE8F09F080002401C00024097
:100850003000024044000240580002406C00024058
:1008600030B528B308C8134914221944B1FBF2F17A
:100870008900C16310498163022141771A6843F6F8
:10088000F0718A43D0E900142143D0E902452C439A
:10089000214304692143446921438469214311436D
:1008A000196000214163012242770177084630BD7B
:1008B000012030BDF8FFFDBF0000024070B50446C6
:1008C00090F82000002501280CD0012084F8200099
:1008D00094F821600020012E06D084F82000022523
:1008E000284670BD022070BD022684F82160A063F6
:1008F0002068066826F0010606602046FFF734FEF1
:10090000E06A00282068016802D041F00E0106E08C
:1009100021F0040101602068016841F00A010160D2
:100920002068016841F001010160D9E770B5044613
:1009300000F008F90546601C02D004480078044421
:1009400000F000F9401BA042FAD370BD2C0000203B
:100950002DE9F84FDFF8B891002409F1040A0AF1F3
:10096000040B23460F270BF1040EC9E00125A54017
:100970002A40AA427DD1674ED1F804C0ACEB0608EC
:10098000B44532D014DCBCF1030F3AD009DCBCF121
:10099000000F2AD0BCF1010F1CD0BCF1020F31D1E5
:1009A0001DE0BCF1110F17D0BCF1120F2AD119E0D4
:1009B000B8F5881F19D006DCB8F5803F15D0B8F51A
:1009C000801F1FD111E0B8F5001F0ED0B8F5041F2D
:1009D00018D10AE0CB6815E0CB681B1D12E0CB688C
:1009E00008330FE0CB680C330CE08B682BB1012B84
:1009F0004FF0080303D0456104E0042302E00561E1
:100A000000E00023FF2A01D8064601E000F10406B9
:100A10004FEA840501D9A5F12005D6F8008007FA30
:100A200005FC28EA0C0803FA05F548EA0508C6F8AB
:100A300000804D68ED0062D5374DAE6946F0010685
:100A4000AE61AD6924F0030605F001050095334D54
:100A500006EB050CDCF80850A607360F07FA06F877
:100A600025EA0805DFF8B880404503D14FF00008BB
:100A700017E044E0DFF8AC80404502D14FF00108B8
:100A80000FE0DFF8A480404502D14FF0020808E0F3
:100A9000DFF89880404502D14FF0030801E04FF0A5
:100AA000040808FA06F848EA0508CCF808804D68FA
:100AB000D9F80060ED034D4601D5164300E096439A
:100AC0002E604D68DAF80060AD03554601D5164337
:100AD00000E096432E604D68DBF80060ED025D4655
:100AE00001D5164300E096432E604D68DEF80060A5
:100AF000AD02754601D5164300E096432E60641C96
:100B00000D682A46E5407FF431AFBDE8F88F00005C
:100B100000040140000011100010024000000140DC
:100B200000080140000C0140001001400014014089
:100B30008068084000D0012070470AB10161704709
:100B40000904FBE701488068704700002C00002082
:100B50000248816802781144816070472C000020AF
:100B6000074810B5016841F010010160032000F052
:100B700075F80F2000F006F800F024F8002010BDF2
:100B80000020024070B50D4D04464FF47A7128786C
:100B9000B1FBF0F00A490968B1FBF0F000F0F2FA9D
:100BA00048B9102C07D200222146501E00F036F81A
:100BB00000206C6070BD012070BD00002C00002082
:100BC000380000200C4808B5816941F001018161BD
:100BD000816901F001010091C16941F08051C16159
:100BE000C06900F0805000900448416821F0E06145
:100BF00041F00071416008BD00100240000001405A
:100C0000002809DB00F01F0201219140400980000B
:100C100000F1E020C0F8001170470000F0B40E4B66
:100C20001B680C46C3F30223C3F10705042D00D94A
:100C30000425191D072901D2002300E0DB1E01262F
:100C400006FA05F1491E214099409E40761E164045
:100C50003143F0BC01F031BF0CED00E0064900F07B
:100C6000070208684FF6FF03184040EA0220034AD3
:100C700010430860704700000CED00E00000FA052A
:100C80002DE9F0470F46050061D0434E306800F073
:100C90000700B84209D2306820F0070038433060BE
:100CA000306800F00700B84251D128683B4C8107FA
:100CB00012D5400703D5606840F4E0606060287892
:100CC000000703D5606840F4605060606068A96800
:100CD00020F0F000084360602878C00728D06868DA
:100CE000012810D02168022810D0890700292EDAA7
:100CF000616821F0030101436160FFF723FF804633
:100D000041F288390DE021688903EFE78901EDE7B9
:100D1000FFF718FFA0EB0801494502D90320BDE801
:100D2000F0876068696800F00C00B0EB810FEFD1CC
:100D3000306800F00700B8420BD9306820F0070097
:100D400038433060306800F00700B84201D001201D
:100D5000E5E72878400705D56068E96820F4E06099
:100D6000084360602878000706D56068296920F488
:100D7000605040EAC100606000F03EF86168084AD7
:100D8000C1F30311515CC840064908600648006879
:100D9000FFF7F8FE0020C2E70020024000100240EA
:100DA000CE380008380000203000002001480068DC
:100DB0007047000038000020044805490068496871
:100DC000044AC1F30221515CC8407047380000203A
:100DD00000100240DE3800080448054900684968F0
:100DE000044AC1F3C221515CC8407047380000205A
:100DF00000100240DE38000812A185B00FC98DE84E
:100E00000F0014A0144A006804905168134801F0C0
:100E10000C03042B10D0082B0ED1C1F38343C9035C
:100E20001DF803000AD5516804AAC1F34041515C82
:100E30000A4A5043B0FBF1F005B0704708494843F7
:100E4000FAE7000002030405060708090A0B0C0D67
:100E50000E0F1010010200000010024000127A0074
:100E600000093D002DE9F84F040070D02078C04DF6
:100E7000C00749D06868C0F38100012807D06868BE
:100E8000C0F38100022809D16868C00306D528682C
:100E9000800339D560680028E7D035E06068B0F598
:100EA000803F0BD010B1B0F5A02F11D0286820F4EE
:100EB00080302860286820F4802002E0286840F410
:100EC00080302860606890B1FFF73CFE06460AE07B
:100ED000286840F480202860F0E700BFFFF732FE6A
:100EE000801B642873D828688003F7D50CE0FFF7CF
:100EF00029FE064605E000BFFFF724FE801B64289C
:100F0000F0D828688003F7D420789A4E80074FF0F5
:100F100001094FF0000839D5686810F00C0F07D0B0
:100F20006868C0F38100022809D16868C00306D44C
:100F30002868800714D52069012808D110E02069AD
:100F4000B0B1C6F80090FFF7FDFD074605E00AE1E5
:100F5000FFF7F8FDC01B0228C4D828688007F7D522
:100F60002868616920F0F80040EAC10028600DE0BF
:100F7000C6F80080FFF7E6FD074604E0FFF7E2FD54
:100F8000C01B022823D828688007F7D420780007E0
:100F90002CD57948A169D9B1C0F80090FFF7D2FDEE
:100FA000074604E0FFF7CEFDC01B02280FD8686A91
:100FB0008007F7D571484FF4FA510068B0FBF1F0A3
:100FC000009000BF0098411E0091FAD20EE080E030
:100FD000C0F80080FFF7B6FD074604E0FFF7B2FD5A
:100FE000C01B022875D8686A8007F7D420784007AC
:100FF00060D5E8690027C00008D4E86940F0805057
:10100000E861E869012700F0805000905C480168C1
:10101000C90513D40168834641F480710160FFF76C
:1010200091FD824606E000BFFFF78CFDA0EB0A00B1
:1010300064284ED8DBF80000C005F5D5E06801282B
:101040000AD008B1052813D0286A20F001002862D0
:10105000286A20F0040002E0286A40F001002862BB
:10106000E06841F2883B98B1FFF76CFD82460BE0E7
:10107000286A40F004002862EEE700BFFFF762FD37
:10108000A0EB0A0159455AD8286A8007F6D50CE02A
:10109000FFF758FD824605E0FFF754FDA0EB0A017B
:1010A00059454CD8286A8007F6D41FB1E86920F06A
:1010B0008050E861E06988B36968C1F38101022961
:1010C00044D00228C6F8608004D0FFF73BFD0446F8
:1010D00038E034E0FFF736FD074604E0FFF732FD65
:1010E000C01B02282BD828688001F7D4206AB0F5ED
:1010F000803F05D16868A16820F40030084368602B
:10110000D4E908010843696821F474110843686050
:10111000C6F86090FFF716FD044606E025E000BF24
:10112000FFF710FD001B022809D828688001F7D5B9
:101130001BE000BFFFF706FD001B022802D90320B9
:10114000BDE8F88F28688001F4D40EE00128F7D0BC
:101150006868226A00F48031914204D1616A00F427
:101160007010884201D00120EAE70020E8E7000083
:101170000010024000004242800442423800002039
:101180000070004010B5401EB0F1807F01D30120F7
:1011900010BD4FF0E02460610F21601701F08DFC5D
:1011A0000020A06107202061002010BD704770471B
:1011B00010B590F83C20012A22D0012280F83C2072
:1011C000CA688C6822F4407222434C6822F4806220
:1011D00022430C6822F4006222430C6922F48052FC
:1011E00022434C6922F400522243C969002322F4AD
:1011F00080420A4301684A6480F83C30002010BDF8
:10120000022010BD70B590F83C20012A26D00124A0
:1012100080F83C40022280F83D2003685A689D68AF
:1012200022F070060A6832435A600D4B02689A42F7
:1012300008D0B2F1804F05D00A4B9A4202D00A4B37
:101240009A4204D1496825F080031943916080F8DF
:101250003D40002180F83C10084670BD022070BD62
:10126000002C0140000400400008004010B50400BC
:1012700003D094F83D0010B107E0012010BD00201C
:1012800084F83C00204600F01FF8022084F83D005E
:10129000211D206801F054F9012084F8460084F8EB
:1012A0003E0084F83F0084F8400084F8410084F850
:1012B000420084F8430084F8440084F8450084F830
:1012C0003D00002010BD000000B585B00021009158
:1012D0000191029103912F4A01682F48914209D14F
:1012E000816941F400618161806900F400600490CB
:1012F00005B000BDB1F1804F2BD0284A914237D1C3
:10130000C16941F00201C161C16901F002010491AA
:10131000816941F0080181618069694600F0080037
:101320000490102000901E48FFF712FB1D484168F2
:1013300021F4406141F0E06141F40061416000222C
:1013400011461D20FFF76AFC5FF01D00FFF758FCF7
:10135000CEE7C16941F00101C161C069002200F01E
:101360000100049011461C20FFF758FC1C20EDE7FB
:101370000D4A9142BCD1C16941F00401C161C0690B
:10138000002200F00400049011461E20FFF746FCE6
:101390001E20DBE7002C014000100240000400404A
:1013A000000C0140000001400008004090F83D1092
:1013B000012901D001207047022180F83D10016809
:1013C000CA6842F00102CA6000680B49884208D02E
:1013D000B0F1804F05D00949884202D008498842BF
:1013E00004D1816801F00701062903D0016841F0AA
:1013F0000101016000207047002C01400004004002
:101400000008004070B5044690F83C00012817D051
:10141000012584F83C50022084F83D002068826851
:1014200022F0770222F47F4282600868502830D090
:101430000DDC20284DD005DC98B310283BD148E0C6
:10144000022070BD302844D0402834D139E06028D3
:1014500028D0702806D0B0F5805F2CD0B0F5005FA2
:1014600029D10AE0CB68D1E90121206801F0ABF86D
:101470002068816841F0770109E0CB68D1E901215A
:10148000206801F0A0F82068816841F48041816003
:1014900011E0CA684968206801F04AF950212068C3
:1014A00007E016E0CA684968206801F07FF960210A
:1014B000206801F092F884F83D50002084F83C0048
:1014C00070BDCA684968206801F032F9402120687F
:1014D000EFE7226801461046EBE7000070B50068B0
:1014E0001349884212D1134C134D207801280ED095
:1014F00002280BD10021114800F047FB6860002151
:101500000E4800F043F92078401C207070BD002187
:101510000A4800F03AFB2860084801680A6A22F08D
:101520000A020A620068016A41F002010162EAE708
:1015300000040040140000204C010020E8010020BD
:101540002DE9F041054690F83C000C46012836D0C4
:10155000012085F83C008AB3042A42D02868082A72
:1015600051D0D4E90023E168066A26F48056066269
:10157000C669076A26F4407646EA03234FF6FF76EB
:1015800006EA013123F4704319434FF4005627F45F
:10159000005306EA02321A43C16102622868C16937
:1015A00021F44061C1612868C169A26841EA022151
:1015B000C161002085F83C00BDE8F08101E0022017
:1015C000FAE7D4E90012E368286801F0C3F8286854
:1015D000816921F00C01816128688169A268114349
:1015E0000FE0D4E90012E368286801F0F1F82868F8
:1015F000816921F44061816128688169A26841EABA
:1016000002218161D5E7D4E90027267B016A21F414
:1016100080710162C169036A21F00301394321F03D
:10162000F00731074FF4007647EA116123F40073A5
:1016300006EA02221A43C16102622868C16921F0E8
:101640000C01C1612868C169A2681143B0E710B5F7
:10165000040003D094F83D0010B107E0012010BD54
:10166000002084F83C00204600F01EF8022084F898
:101670003D00211D206800F063FF012084F8460032
:1016800084F83E0084F83F0084F8400084F841006C
:1016900084F8420084F8430084F8440084F845004C
:1016A00084F83D00002010BD7047000010B50446CE
:1016B00051B104290DD0082910D094F8410094F8B4
:1016C0004520012811D10EE094F83E0094F8422004
:1016D000F7E794F83F0094F84320F2E794F84000CD
:1016E00094F84420EDE7012A01D0012010BD02202A
:1016F00051B1042911D0082918D084F8410084F888
:1017000045000C291BD136E084F83E0084F84200E5
:101710002068C26842F0020210E084F83F0084F8BA
:1017200043002068C26842F0040207E084F84000E9
:1017300084F844002068C26842F00802C2600122B6
:10174000206800F033FF0E492068884208D0B0F1CD
:10175000804F05D00B49884202D00B49884204D102
:10176000816801F00701062903D0016841F00101F9
:101770000160002010BD2068C26842F01002DDE761
:10178000002C0140000400400008004030B5044631
:1017900000680D0006D0042D08D0082D28D00C2D8F
:1017A00008D129E0C16821F0020102E0C16821F0FE
:1017B0000401C16000222946206800F0F7FE20687D
:1017C000016A41F21112114207D1016A92101142CD
:1017D00003D1016821F001010160012085B1042DD0
:1017E00011D0082D12D004F8410F2071002030BD17
:1017F000C16821F00801DCE7C16821F01001D8E7D9
:1018000004F83E0FF1E704F83F0FEEE704F8400F4D
:10181000EBE770B50446006801694FF00005C94365
:10182000890715D4C168C943890711D4E91E01612C
:1018300001202077206880698007204602D0FFF7CA
:101840004DFE04E000F0BEF8204600F04DF925778B
:1018500020680169C943490717D4C168C9434907CA
:1018600013D46FF0040101610220207720688069A1
:1018700010F4407F204602D0FFF730FE04E000F075
:10188000A1F8204600F030F9257720680169C943A6
:10189000090716D4C168C943090712D46FF00801BB
:1018A0000161042020772068C0698007204602D0AB
:1018B000FFF714FE04E000F085F8204600F014F96C
:1018C000257720680169C943C90617D4C168C9438F
:1018D000C90613D46FF01001016108202077206839
:1018E000C06910F4407F204602D0FFF7F7FD04E006
:1018F00000F068F8204600F0F7F8257720680169C5
:10190000C943C90708D1C168C943C90704D1891EA1
:101910000161204600F038F920680169C9430906D1
:1019200009D4C168C943090605D46FF0800101617B
:101930002046FFF73BFC20680169C943490609D4EA
:10194000C168C943490605D46FF0400101612046D2
:1019500000F030F920680169C94389060BD4C168D9
:10196000C943890607D46FF0200101612046BDE814
:101970007040FFF71CBC70BD00B585B00021009120
:1019800001910291039100680B49884212D10B48E2
:10199000816941F0040181618069694600F00400B9
:1019A00004904FF47060009002200190039004486E
:1019B000FEF7CEFF05B000BD002C01400010024034
:1019C00000080140704770B5044690F83C000D4691
:1019D00001280AD0012084F83C0042B1042A18D022
:1019E000082A2AD00C2A4DD139E0022070BD206887
:1019F00000F0FCFD2068816941F0080181612068E8
:101A0000816921F004018161206881692A6911439B
:101A100011E0206800F012FE2068816941F4006145
:101A200081612068816921F4806181612068816918
:101A30002A6941EA0221816124E0206800F02AFE3F
:101A40002068C16941F00801C1612068C16921F0C5
:101A50000401C1612068C1692A69114311E020684D
:101A600000F044FE2068C16941F40061C161206852
:101A7000C16921F48061C1612068C1692A6941EAB4
:101A80000221C161002084F83C0070BD10B5040043
:101A900003D094F83D0010B107E0012010BD0020F4
:101AA00084F83C00204600F01EF8022084F83D0037
:101AB000211D206800F044FD012084F8460084F8D0
:101AC0003E0084F83F0084F8400084F8410084F828
:101AD000420084F8430084F8440084F8450084F808
:101AE0003D00002010BD70477047000010B504464F
:101AF000022249B104290ED0082913D094F84100DC
:101B0000012816D0012010BD94F83E000128F9D11B
:101B100084F83E200FE094F83F000128F2D184F8C9
:101B20003F2008E094F840000128EBD184F84020E1
:101B300001E084F841200122206800F037FD0F49C0
:101B40002068884203D1426C42F40042426420681B
:101B5000884208D0B0F1804F05D00949884202D0B0
:101B60000849884204D1816801F00701062903D0A1
:101B7000016841F001010160002010BD002C01400E
:101B8000000400400008004070470246002041B1B8
:101B9000042909D008290AD00C2901D11068006C49
:101BA00070471068406B70471068806B7047106812
:101BB000C06B70477047704770470000F8B5026807
:101BC00004461068D168536910F00F0F4FF00005FC
:101BD00054D003F0010601F4907737435FD0C20779
:101BE00005D0CA0503D5226C42F0010222644207E7
:101BF00005D5DA0703D0226C42F002022264820784
:101C000005D5DA0703D0226C42F0040222640207F1
:101C100007D501F02002324303D0226C42F00802C3
:101C20002264226C002A35D0800604D5880602D5AD
:101C3000204600F061FE20684069216CC0F38010EE
:101C400001F008010143204625D000F034FE206851
:101C5000416949061BD5416921F040014161A06BF2
:101C6000A8B158494163A06BFEF704FD002811D0CC
:101C7000A06B416B01B0BDE8F040084783060ED56C
:101C80008B060CD52046BDE8F84000F035BE204656
:101C9000FFF792FFF8BDFFF78FFF2564F8BD266BB5
:101CA0002023012E52D1C60650D5CE064ED510683F
:101CB00050680090506940062AD5A16B08684068BA
:101CC0000004000CEAD0A68D8642E7D9E085886939
:101CD000202818D0D06820F48070D0602068416936
:101CE00021F0010141612068416921F04001416119
:101CF00084F83E3025632068C16821F01001C1607E
:101D0000A06BFEF793FCA08DE18D401A81B219E023
:101D1000A08DE18D401A81B2E08D0028BED000294F
:101D2000BCD0D06820F49070D0602068426922F066
:101D30000102426184F83E3025632068C26822F0C7
:101D40001002C2602046FFF736FFF8BD05062BD50E
:101D50000D0629D594F83D002128F6D1A068B0F5EC
:101D6000805F01D12069B0B1206A411C21622168E5
:101D700000784860E08C401E0004000CE084E4D150
:101D80002068C16821F08001C1602068C16841F00D
:101D90004001C160F8BD206A0088C0F308005060AF
:101DA000206A801C2062E5E74006F3D54806F1D59D
:101DB000D168204621F04001D16084F83D3000F028
:101DC00053F9F8BD2528000870B5040004D094F834
:101DD0003D00002510B106E0012070BD84F83C50A4
:101DE000204600F023F8242084F83D002068C168D4
:101DF00021F40051C160204600F0DAFD206801693D
:101E000021F4904101612068416921F02A0141617A
:101E10002068C16841F40051C1602564202084F825
:101E20003D0084F83E00002070BD000070B586B013
:101E3000002400940194029403940646384D0368EC
:101E4000384902200322AB4227D1CB6943F4003347
:101E5000CB61CB6903F4003304938B6943F0040333
:101E60008B618969304D01F0040104910421CDE9B1
:101E70000010039269462846FEF76AFD0820CDE966
:101E80000004694628460294FEF762FD00221146CE
:101E90002620FEF7C3FE26203DE0244DAB423CD178
:101EA000CB6943F48023CB61CB6903F48023049393
:101EB0008B6943F008038B618969039201F0080183
:101EC00004912915CDE90010194D69462846FEF701
:101ED0003FFDE814CDE90004694628460294FEF768
:101EE00037FD154D134828601020C5E901048020F6
:101EF000C5E903046C61AC612846EC61FEF7B0FCF7
:101F000008B1FEF747FB75630022114627206E6279
:101F1000FEF784FE2720FEF773FE06B070BD0000BA
:101F2000004400400010024000080140004800400A
:101F3000000C01401C0002402003002090F83E30BD
:101F4000202B0ED159B152B190F83C30012B08D062
:101F5000012380F83C300023036300F085BD01209D
:101F6000704702207047000070B51B4C0026607857
:101F7000242800D166601949656848556D1C656064
:101F80000A78242A19D10A794D2A16D14979432988
:101F900013D10A2811D150211148FEF76CF92A46B5
:101FA0000E490F48FEF722F90D49012081F8500033
:101FB00080210A486660FEF75EF907490122491C44
:101FC0000848FFF7BBFF0449BDE8704005480222FE
:101FD000891C4430FFF7B2BF24000020CC00002051
:101FE000530000207802002070B5044690F83D00B0
:101FF000202830D169B362B394F83C0001282AD07C
:10200000012084F83C002162A284E284002525643A
:10201000212084F83D00636B10489862636B104880
:10202000D862636B0F481863606B1346456326687C
:10203000606B321DFEF742FC21686FF040000860C3
:1020400084F83C502068416941F0800141610020E2
:1020500070BD012070BD022070BD00007F28000807
:10206000AD2800083528000870477047FEE70000DB
:10207000F0B585B000251C480095019502950395A3
:10208000816941F020018161816901F020010491A1
:10209000816941F004018161816901F004010491C9
:1020A000816941F0080181618069104F00F00800EA
:1020B00004900022A0213846FEF73FFD202000902A
:1020C00001260224CDE90164694638460394FEF7EF
:1020D0003FFC8020CDE90006CDE902546946384630
:1020E000FEF736FC05B0F0BD00100240000C0140C8
:1020F00010B596B000240F94109411941294139478
:102100001C2168461494FEF7D8F8202107A8FEF792
:10211000D4F83448324901604721C0E901146321F1
:10212000C0E9031444618461FFF7A0F808B172B6F6
:10213000FEE74FF480500F900FA92A48FFF762F98D
:1021400008B172B6FEE72748FFF7A0FC08B172B6E7
:10215000FEE7139413A923481494FFF753F808B12A
:1021600072B6FEE76020CDE9000402940394049463
:102170000594002269461B480694FFF724FC08B129
:1021800072B6FEE7042269461648FFF71CFC08B148
:1021900072B6FEE7082269461248FFF714FC08B140
:1021A00072B6FEE70C2269460E48FFF70CFC08B138
:1021B00072B6FEE70794089409944FF400500A940D
:1021C000CDE90B4007A907480E94FEF7F1FF08B1CF
:1021D00072B6FEE70348FFF7CFFB16B010BD000054
:1021E000002C01405801002010B586B0002416488C
:1021F000009401940294039404944FF08041059458
:1022000001604721C0E901144FF6FF71C0E90314D2
:102210008461FFF72BF808B172B6FEE74FF48050E7
:10222000009069460848FFF7EDF808B172B6FEE77E
:10223000049404A904480594FEF7E4FF002801D0A3
:1022400072B6FEE706B010BDA001002010B58AB03E
:102250000024234804940594069407940894099450
:102260000094019402941D49039401604721C0E940
:1022700001144FF6FF71C0E9031480218161FEF75C
:10228000F5FF08B172B6FEE74FF48050049004A940
:102290001348FFF7B7F808B172B6FEE71048FFF72A
:1022A000D6F908B172B6FEE7089408A90C4809945B
:1022B000FEF7A8FF08B172B6FEE70120CDE90040A5
:1022C00002940022694606480394FFF739F9002872
:1022D00001D072B6FEE70AB010BD00000004004055
:1022E000E801002010B586B000241748009401943E
:1022F0000294039404941349059401604721C0E9B2
:1023000001144FF6FF71C0E9031480218161FEF7CB
:10231000ADFF08B172B6FEE74FF4805000906946F9
:102320000948FFF76FF808B172B6FEE7049404A9F4
:1023300005480594FEF766FF002801D072B6FEE757
:1023400006B010BD0008004030020020FEE7FEE7A6
:102350002DE9F8432B4F002697F85000002840D075
:10236000B14687F850904FF001080FE076B1641C39
:1023700025A12046FDF728FF05002CD0072E29D2E5
:10238000DFE806F0280B102231363B001EA11D4865
:10239000FDF71AFF040024D01DE01A482A1B21462D
:1023A000523015E02A1B21466846FDF71FFF9DF8B5
:1023B0000000412802D0562803D00BE087F878802F
:1023C00008E087F8789005E00E482A1B21465D302A
:1023D000FDF70CFF2C46761CF6B2062EC6D987F800
:1023E0005180BDE8F88307482A1B21466830EFE793
:1023F00004482A1B21466A30EAE702482A1B214684
:102400007630E5E7530000202C000000704770474D
:10241000FEF79EBB30B58FB028216846FDF74DFF13
:1024200014210AA8FDF749FF01210804CDE9001095
:102430000024029402250491CDE907504FF4E010E6
:1024400009906846FEF70EFD08B172B6FEE70F2050
:10245000CDE90A054FF48060CDE90C4002210AA8BD
:102460000E94FEF70DFC002801D072B6FEE70FB007
:1024700030BD7047294810B500780021284C362817
:102480000CD035280CD034280CD033280CD0302870
:102490000CD0312815D0322815D009E0217007E082
:1024A000062004E0012002E0022000E0032020706A
:1024B000207850B101280BD002280DD006280FD16A
:1024C00019E00420F3E70520F1E76160A16007E06F
:1024D00046226260452202E0642262606322A260BA
:1024E0006268E260A268226103280BD0042806D04B
:1024F000052807D105E06FF063026260EFE7E16055
:1025000000E02161E06800F027FD206900F034FD63
:10251000BDE810400348FFF77CB90000260000200A
:1025200064030020A00100200148FFF772B90000F9
:10253000E80100200148FFF76CB9000030020020DC
:10254000F0B50268164B174C174D4FF08047984274
:1025500005D0B84203D0A04201D0A84203D122F056
:1025600070064A683243984205D0B84203D0A04270
:1025700001D0A84203D122F44074CA6822434C69B6
:1025800022F08002224302608A68C2620A68826284
:10259000984201D10969016301214161F0BD000048
:1025A000002C0140000400400008004010B501F07C
:1025B0001F030121046A99408C430462016A9A4016
:1025C0001143016210BD10B5846842EA032224F46D
:1025D0007F440A432243826010BD826822F0700269
:1025E0000A4342F0070181607047000030B5026A7B
:1025F00022F001020262026A4368846924F07305D2
:102600000C682C4322F002058A682A430A4DA8422E
:102610000BD122F00805CA6823F440732A434D69A0
:1026200022F004021D438B692B4343608461496897
:102630004163026230BD0000002C014030B5026AE7
:1026400022F010020262026A436884690D6824F471
:10265000E64444EA05248D6822F0200242EA05128D
:102660000B4DA8420ED1CD6822F0800242EA05123D
:102670004D6923F4406343EA85038D6922F04002EB
:1026800043EA85034360846149688163026230BD27
:10269000002C014030B5026A22F480720262036AA3
:1026A0004268C46923F4007324F073050C682C435A
:1026B0008D6843EA05230C4DA8420ED1CD6823F462
:1026C000006343EA05234D6922F4405242EA0512B1
:1026D0008D6923F4806342EA05124260C46149684F
:1026E000C163036230BD0000002C014030B5026AB6
:1026F00022F480520262046A4268C3690D6823F4BE
:10270000E64343EA05238D6824F4005444EA053483
:10271000064DA84204D14D6922F4804242EA851256
:102720004260C36149680164046230BD002C01400D
:1027300010B5036A046A24F001040462846924F079
:10274000F00444EA021423F00A020A43846102629C
:1027500010BD000070B5046A24F0010404628469AD
:10276000056A0F4EB04208D0B0F1804F05D00D4E33
:10277000B04202D00C4EB04203D124F00304144303
:1027800001E044F001041A0724F0F00444EA126264
:1027900025F00A0301F00A0119438261016270BD4C
:1027A000002C0140000400400008004010B5036AFE
:1027B00023F0100303628369046A23F4704343EA3D
:1027C000023224F0A00343EA01118261016210BDCC
:1027D00030B5046A24F0100404628469056A24F4A4
:1027E000407444EA022222F470444FF6FF7202EA77
:1027F00003322243A02425F0A00304EA0111194367
:102800008261016230BD000010B50446FEF7CEFAC9
:102810000349B0FBF1F16143491EFDD210BD000038
:1028200000093D0010B5406A0021C185C184FFF751
:10283000C3F910BD70B5446A2068406994F83D1032
:10284000C0F3C0100025212904D118B1E584204629
:1028500000F049F82068406994F83E10C0F38010F9
:10286000222904D118B1E585204600F024F8206C17
:1028700040F0100020642046FFF79EF970BD10B5AF
:102880000146406A0968096889060CD40021C184A0
:1028900001684A6922F080024A610068C16841F01B
:1028A0004001C16010BDFFF7DFFB10BD10B5406AED
:1028B000FFF7DBFB10BD0168CA6822F49072CA60A2
:1028C00001684A6922F001024A61016B012904D1C1
:1028D0000168CA6822F01002CA60202180F83E1008
:1028E0000021016370470168CA6822F0C002CA6013
:1028F000202180F83D10704708B590F83E1022293D
:1029000001D0022008BD82684FF480539A4201D161
:10291000016921B1816A9A421BD04AB10AE002687A
:10292000816A5268C2F308020A80816A891C08E041
:10293000026972B10268526802F07F020A70816A0D
:10294000491C8162C18D491E0904090CC18503D04F
:1029500019E002685268F1E70168CA6822F02002B3
:10296000CA600168CA6822F48072CA6001684A6954
:1029700022F001024A61202180F83E10016B0129FA
:1029800003D0FFF7F1FA002008BD002101630168C0
:10299000CA6822F01002CA6001680A68D20602D52D
:1029A0000A6849680091818DFFF705F9EBE700009F
:1029B00070B5044600680169E26821F44051114392
:1029C00001612169A0680843616908432168CA68F8
:1029D00041F20C639A430243CA6020684169A269CC
:1029E00021F44071114341611E492068884202D19F
:1029F000FEF7F2F901E0FEF7DFF900EBC00101EBB1
:102A00000012606864218000B2FBF0F3B3FBF1F3C5
:102A10006FF018067343B2FBF0F5B2FBF0F605EB6E
:102A20008305322303EB0515B5FBF1F5B6FBF1F693
:102A300005F0F00505EB0615B2FBF0F6B2FBF0F081
:102A4000B0FBF1F06FF01802504306EB800003EB8F
:102A50000010B0FBF1F0216800F00F0028448860FE
:102A600070BD00000038014081628285C28500216E
:102A70000164222280F83E2080F83C100168CA6878
:102A800042F48072CA6001684A6942F001024A61F8
:102A90000068C16841F02001C1600020704700005B
:102AA0000148FFF78BB80000780200200148FFF7CB
:102AB00085B80000BC020020FEE70907090E0028C7
:102AC00004DB00F1E02080F80014704700F00F00F4
:102AD00000F1E02080F8141D7047000010B5044696
:102AE000FEF764F90349B0FBF1F16143491EFDD2E1
:102AF00010BD000000093D002DE9F04120481F49AC
:102B00004068064600F0F6FB00F0D2FC1C4DC4B253
:102B10004FF47A710C3504FB01F000F001FD3146F1
:102B200000F0DEFD0646174900F0E4FB00F0C0FCB3
:102B3000C7B2642107FB01F000F0F2FC0146304609
:102B400000F0D8FD8046104900F0D4FB00F0B0FC46
:102B5000C6B206EB8600400000F0E2FC01464046AB
:102B600000F0C8FD00F0A4FC30303036E87030379B
:102B7000AE706F7030342C70BDE8F08100007A4484
:102B8000140000200000C842000020411CB5FDF7E1
:102B9000E7FFFFF73FFCFFF76BFA4B48416941F055
:102BA000010141614069002200F0010001901146DD
:102BB0000C20FEF733F80C20FEF722F8FFF746FB57
:102BC000FFF790FBFFF794FA414840490024016069
:102BD0004FF4E131C0E901140C25C460C0E904459B
:102BE0008461C461FFF7F0F808B172B6FEE73848B7
:102BF0003849443801604FF41651C0E90114C460EB
:102C0000C0E904458461C461FFF7DEF808B172B61B
:102C1000FEE7FFF7E9FA3048FEF7C8FB2E484830D8
:102C2000FEF7C4FB02222D492948FFF787F92848FF
:102C3000012269464438FFF781F9274800214838C6
:102C4000FEF754FF244804214838FEF74FFF22487E
:102C500008214838FEF74AFF1F480C214838FEF784
:102C600045FF4FF47A70FDF761FE194E1B4D1C367F
:102C70001B4FDFF8708006F13109AD1EFDF7B4FB84
:102C8000FFF766FB00F032F83868B062387986F8F2
:102C90002C00D8F80000C6F82D001722124948462B
:102CA000FDF7A4FAFDF778FCFFF726FF2878401C13
:102CB000C0B228700528E1D10549202244310448DA
:102CC000FFF792F92C70D9E700100240004800404D
:102CD000BC02002000440040A0010020260000208B
:102CE00005000020200000203C0000202DE9F84FC6
:102CF000954C94F8510000287ED0002584F851505E
:102D000094F878102846A4F11708002975D08F4E42
:102D100084F87800AB46DFF8389237681EE02E283A
:102D20001BD0012D0FDC94F85D0094F85E10303854
:102D300000EB80026FF02F0000EB4200084400F02F
:102D4000D7FB074609E0303800F0D2FB594600F0C7
:102D50006FFA494600F0F8FB83466D1C601990F845
:102D60005D000028DBD1BA46376000274D46294672
:102D7000584600F0BFFA7F1C8346052FF7DD7549E2
:102D800000F0B8FAB1463746514600F051FA06460F
:102D900000F072FB4FF00A0A0146524690FBF2F037
:102DA000303084F85D0091FBFAF00AFB10103030EF
:102DB00084F85E004FF02E0B84F85FB0084600F0F8
:102DC00097FB314600F08CFC03263860294600F062
:102DD000BBFB074600F050FBA21900F1300182F85E
:102DE0005D1000F085FB394600F07AFC761C0A2E57
:102DF000ECDBC9F8000001E0A0E0A1E000200090B9
:102E00000646D9F8047025E02E2822D0022E16DCC2
:102E100094F86A0094F86B10303800EB80026FF081
:102E20002F0000EB4202114401EB810100EB410055
:102E300094F86C10084400F05BFB074609E030385A
:102E400000F056FB009900F0F3F9294600F07CFBF6
:102E50000090761CA01990F86A000028D4D14E4644
:102E6000C9F80470B94600272946009800F042FAD4
:102E70007F1C0090052FF7DD364900F03BFA4946EC
:102E800000F0D6F9074600F0F7FA642190FBF1F262
:102E9000303284F86A2090FBF1F201FB12025146B5
:102EA00092FBF1F2303284F86B2090FBFAF20AFBCD
:102EB0001201303184F86C1084F86DB000F018FB0A
:102EC000394600F00DFC0427A9467060494600F021
:102ED0003BFB054600F0D0FAE21900F1300182F820
:102EE0006A1000F005FB294600F0FAFB7F1C0B2F4F
:102EF000ECDB70602C2088F8140088F80A0088F851
:102F000008004E2088F80900452088F815000D209B
:102F100088F816004146002001E0072803DC22184B
:102F200092F85D200A54A0F10B02082A03D8221857
:102F300092F85F200A54401C1628EEDBBDE8F88F9B
:102F40000D2188F81610F9E7530000200C0000202E
:102F500000002041000070420649002300280A6852
:102F600003DA5063086883637047536309688863B2
:102F700070470000580100200649002300280A6815
:102F800003DAD063086803647047D3630968086490
:102F9000704700005801002021F00042A2F1605269
:102FA000B2F5801F01F0004328BFD2F17F6C0BD92E
:102FB0005FEA001C43EAC20242EB507018BF704740
:102FC00028BF20F001007047B2F5801FBCBF184633
:102FD00070474FEA410C1CF5001F02D2084600F072
:102FE0007ABB70B500F0D0F800000089FFF7F6BF9B
:102FF0004FF00040A0F580007047000002494FF0FC
:10300000000000F0ECBB00BF0000F87FB0FA80F3D6
:1030100010FA03F10AD0C3F11D0303F580634FEAF0
:1030200041504FEA035202EBD12170474FF00000AC
:1030300070470000DFF848C170B51CEA111E1EBFC2
:103040001CEA13159EEA0C0F95EA0C0F00F06F8036
:1030500081EA030423EA4C134EEAD47E21EA4C11A0
:1030600041F4801143F48013AE44A1FB024CA0FB59
:103070000365AEF17F7E361955EB0C05A1FB034CC1
:103080004CF10003A0FB021C16EB0C06654153F14A
:103090000003094218BF46F0010613F4007F0BD16C
:1030A0004FEA03314FEA0530340341EA155140EA53
:1030B00016506FF003020AE04FEAC3214FEAC52021
:1030C000F40241EA555140EA56506FF0020202EB19
:1030D0002E4201EB025585EACE710AD05FEA440C1C
:1030E00018BF24F0004450F1000041F1000120EA33
:1030F000D47040F2FE7C624500D270BDA84214BF7D
:103100004FF080444FF04044002E08BF0024BEF131
:10311000806FA8BFA1F1C041BDE8704080F28280FD
:103120004FF0000001F1C04101F0004170479EEAFC
:103130000C0F0CEA131518BF95EA0C0F06D04FF0D0
:10314000000081EA030E0EF0004170BD00F01CF893
:103150008900013E00F007B800F009B84FEA430CBF
:103160005FEA5C5C08D081EA030100F05BB84FEADB
:10317000410C5FEA5C5CF6D14FF0000001497047FA
:103180000000FF070000F87F0EF1020E2EF0030E84
:103190005EF8046B364205D4012A43EB030515F5AE
:1031A000001F12D8012841EB010C1CF5001F0CD8A0
:1031B0000ED14FEAD17C15F5001F0CEB4C0C0CF135
:1031C000020C08BF4CEBD37C04E04FF0080C01E08C
:1031D0004FEAD37C0CEB4C0526FA05F606F0070601
:1031E000B6F1040C06D20EEB860CBDE870404CF034
:1031F000010C6047DFE80CF0090B02024FF00041C0
:103200004FF00000A1F5002170BD194610460128BD
:1032100051EB010418BFD4F5001484BF002001F065
:10322000004170BD0808A0F500114FEA3101704758
:1032300090EA010F48BF81F0004100F16282421A1A
:103240003CBF801A89184FEAD0524FF07F4C1CEADD
:10325000410FA2EBD15318BF9CEA026F00F03B80F4
:103260004FF0004C4CEA00204CEA012121FA03FC0B
:1032700010EB0C0C1ED202F1FF325FEA1C2040EB77
:10328000C25038BF70471CF07F0F4FEA400C18BF88
:10329000BCF17F4F38BF7047C3F12003994008BF8E
:1032A00020F00100BCF17F4F38BF7047A0F1C04053
:1032B00000F011BA4FEA3C00000A40EBC25028BFB0
:1032C0001CF0FF0F4FEA400CE6D018BFBCF17F4F57
:1032D00038BF7047EAE79CEA026F05D010EA5C0F3E
:1032E00008BF00F00040704710B500F0AEF900BF15
:1032F00064FBBE3E4FF47F0C1CEAD0121EBF1CEADA
:10330000D11392EA0C0F93EA0C0F00F0858090EA3B
:10331000010F48BF42F4807240F4000C41F40000F9
:103320002CF07F4120F07F4000B58142A2EB0302E8
:103330000FF2081CACEB504EC0F100009EF800E00C
:103340004FEA4E0E00FB0EFC38BF49004FEA2C1C22
:1033500002F5FA020CFB0EF34FEACE1E4FEA112CD7
:103360004FEAC1210EEB635E42EB22420EFB0CFCE6
:103370004FEA1C5300FB03114FEA112C4FEA0131B5
:103380000EFB0CFC4FEADC4C00FB0C11C14228BFC9
:1033900009184CEB03335DF804EB10EB410143EBF0
:1033A000C250B2F57C0F38BF704729D512F0F00F2C
:1033B0001CBF00F1C04000F00040704700818283D4
:1033C0008485868788898B8C8D8E8F919293959634
:1033D00097999A9C9D9FA0A2A3A5A7A8AAACAEB0BE
:1033E000B2B3B5B7B9BCBEC0C2C5C7C9CCCED1D4C3
:1033F000D7D9DCDFE2E6E9ECF0F3F7FAFE000000F3
:103400004FEA400C0CF1807CBCF17E4F28BF704726
:10341000B0F1C04000F05FB990EA010F0CEAD1139F
:1034200048BF42F48072624538BF634507D213F447
:103430007F0F16D080EA010000F00040704710B501
:1034400000F003F9097EFC3E00F005B880EA0100B7
:1034500000F00040704780EA010000F0004000F0FA
:103460003AB912F47F0F04BF0248704780EA0100A6
:1034700000F031B90000C07F41000B0ED3F19E0275
:1034800008D950F400034FEA032323FA02F048BF9F
:103490004042704710B500F0D8F800BF4992248030
:1034A000002070476FF0004282EA20007047000061
:1034B000C10DD1F19E0206DB4FEA002343F0004329
:1034C00023FA02F07047004207D54FEA4001B1F1FC
:1034D000FE4F02D24FF00000704710B500F0B5F873
:1034E00049922480002070476FEA20007047000056
:1034F00010F0004148BF4042B0FA80F310FA03F2E6
:10350000C3F19D030BD051EAC35101EB12205306C6
:1035100038BF704700F1010008BF20F0010070477C
:10352000B0FA80F310FA03F2C3F19D030AD0D90573
:1035300001EB1220530638BF704700F1010008BFAD
:1035400020F00100704700004FF47F0C1CEAD012FD
:103550001EBF1CEAD11392EA0C0F93EA0C0F00F085
:10356000478090EA010F48BF42F480724FF0004C50
:103570004CEA00204CEA012102EB0302A0FB0113FC
:10358000A2F50002002918BF43F001035B0028BF29
:103590004FEA330342EB22425FEA132C4CEBC2505A
:1035A0002EBFBCEB436FB2F57C0F70474FEA036C44
:1035B000BCF1004F08BF20F00100B2F57C0F38BF0E
:1035C00070470BD582F0FF0212F5803FC8BF7047ED
:1035D00000F1C040D8BF00F00040704700F5000C7B
:1035E0005FEA4C0C48BF7047B0F1C04000F073B8C0
:1035F00090EA010F0CEAD11348BF42F48072624591
:1036000038BF634504D280EA010000F000407047F3
:1036100010B500F01AF800BF8900013E00F007B8AD
:1036200000F009B85FEA410C5FEA1C6C08D080EA40
:10363000010000F050B85FEA400C5FEA1C6CF6D164
:103640004FF00040A0F5800070470EF1020E2EF002
:10365000030E5EF8044B244204D44FEA4102B2F157
:103660007F4F11D84FEA4003B3F17F4F0CD80ED1F2
:103670004FEAD07CB2F17F4F0CEB4C0C0CF1020CFA
:1036800008BF4CEBD17C04E04FF0080C01E04FEA9E
:10369000D17C0CEB4C0324FA03F404F00704B4F1DE
:1036A000040C06D20EEB840CBDE810404CF0010C6B
:1036B0006047DFE80CF0070802024FF00040A0F579
:1036C000800010BD0846420018BFD2F1807288BF4A
:1036D00000F0004010BDFF2141EAD050C005704706
:1036E00080F0004090EA010F7FF5A9AD81F0004124
:1036F00000F007B890EA010F48BF81F000413FF5A4
:103700009EAD421A04D882F00042A0EB02001144A0
:103710004FEAD0524FF07F4C1CEA410FA2EBD1533D
:1037200018BF9CEA026F4AD04FF0004C4CEA0020D0
:103730004CEA012121FA03FCB0EB0C0C0FD412F07F
:10374000FE0F36D05FEA4C001DD5001240EBC25090
:1037500038BF70471CF03F0F18BF70470BE0A2F155
:1037600001025FEA1C2040EBC25038BF70471CF0DA
:103770007F0F18BF7047C3F12003994014BF401E4C
:1037800020F00100704780084FEA122308BF7047FD
:10379000B0FA80FCA2EB0C02CCF1280C60FA0CF021
:1037A00093EA122F04BF00EBC25070474FEAC37078
:1037B0007047130A5FEADC1008BF7047F6E79CEA1F
:1037C000026F04D010EA5C0F08BF0020704710B5EC
:1037D000FFF73BFF40DFF63E81F0004070470CF002
:1037E0000F03092B08BF082000F059800A2B0BD0CB
:1037F000082B18BF704708BF1CF0400F0AD04FF0CD
:1038000000004FF0000170471CF0400F18BF4FF050
:10381000004070471CF0100F08D020F0704300F0FB
:103820007F4242EAD3014FEA4370704700F06040A4
:1038300021F07F4242EA000201F07F4040EA7270CC
:1038400070474FF0FF0C4CF4E06C1CEA11531CBFA6
:103850009CEA030C9445C2BFDA4201EB0251704767
:10386000002B0DD0BCF1000F0FD0002A01F0004159
:10387000A4BF41F0E04141F07F614FF0000070478C
:1038800001F000414FF00000704750EA01334FF063
:103890009B0C18BF4CF0806C7FF4B0AB70471CF4ED
:1038A000801F11D01CF4E02F03D06FEACC31490007
:1038B00070474FF04050EFF3008222F0704242EA2E
:1038C000000282F3008870474FF00000704700004C
:1038D00000000000000001020304060708090000C0
:1038E0000000010203040000083900080000002065
:1038F0003C00000028010008443900083C0000207A
:103900009C090000440100080000000000000000C5
:1039100000000000000000000000000000000000A7
:103920000000000000000000000000000000000097
:103930000000000001000000100000000000000076
:043940000024F4006B
:04000005080000ED02
:00000001FF
